:040000003AEF00F0E3
:100008001782FACF06F0FBCF07F0F2AC0EEF00F044
:1000180010EF00F034EF00F09DAC15EF00F017EF93
:1000280000F022EF00F09EAC1CEF00F01EEF00F095
:1000380022EF00F0D2EC00F034EF00F09DA027EFA3
:1000480000F029EF00F034EF00F09EA02EEF00F052
:1000580030EF00F034EF00F09CEC00F034EF00F0EB
:1000680007C0FBFF06C0FAFF179211003AEF01F034
:100078002FEC01F011EC01F0E40E086E000E096E91
:1000880054EC01F0F28EF28C150E0D6E4B0E0C6EC8
:10009800BE0EE82EFED70C2EFCD70D2EFAD700F098
:1000A80000F08C88000E23EC01F065EC01F04EECBA
:1000B80001F044EC01F0D89009320832D8900932A6
:1000C8000832D8900932083208C014F009C015F077
:1000D80014C016F056EF00F03AEF00F08C80060ED0
:1000E800016E300EE82EFED7012EFCD700F000F08E
:1000F800000E056E000E046E88EF00F0090EE82E63
:10010800FED700F0044A052A1650016E026A015013
:10011800045C0550800A036E0250800A0358D8A078
:1001280098EF00F09AEF00F082EF00F08C90120048
:100138009E9012C001F013C002F0EAEC00F01050DB
:100148001110D8B4AAEF00F0ACEF00F0B9EF00F04E
:1001580002D8B9EF00F00500FA6E1050FD6E11508C
:10016800FE6EF850FF6EFA5012001200000E8D6EEF
:10017800000E8C6E000E896E000E8A6E000E8B6E5D
:10018800070E966E926893689468EE0E956E7E6878
:100198001F0E7F6E000E7C6EF18E12009E9C0E501C
:1001A8000F10D8B4DAEF00F0DCEF00F0E9EF00F060
:1001B80002D8E9EF00F00500FA6E0E50FD6E0F5000
:1001C800FE6EF850FF6EFA5012001200CDA4EFEF49
:1001D80000F0F1EF00F0F9EF00F0CD900250CF6E93
:1001E80001C0CEFFCD80FDEF00F00250CF6E01C000
:1001F800CEFF1200730ECF6E600ECE6ECECF12F011
:10020800CFCF13F09E909D80CE0E086E020E096E21
:1002180054EC01F0110ECD6E1200000EC16E800E6E
:10022800C06E000EC36E000EC46E010EC26E9D8CB1
:10023800D00E086E020E096E5EEC01F01200096E17
:1002480009C008F008460846C2500818C30B081829
:10025800C26EC280120063EC01F0BAEC00F059ECF7
:1002680001F0FEEC00F011EC01F01200166A156ABC
:10027800146A17901792000EF86E00013CEF00F018
:10028800C4500B6E0A6AC3500A24086E000E0B2075
:10029800096E1200A00E00F000F0E82EFCD7120044
:1002A80008C010F009C011F01200720ED36E400E93
:1002B8009B6E120008C00EF009C00FF01200D09E0D
:0A02C8001200C282120012001200A0
:020000040020DA
:08000000FFFFFFFFFFFFFFFF00
:020000040030CA
:0E000000FF081F1EFF0B81FF0FC00FE00F4017
:00000001FF
